:100000000C945D000C9485000C9485000C94850084
:100010000C9485000C9485000C9485000C9485004C
:100020000C9485000C9485000C9485000C9485003C
:100030000C9485000C9485000C9485000C9485002C
:100040000C948B020C9485000C9459020C9433028E
:100050000C9485000C9485000C9485000C9485000C
:100060000C9485000C94850000000008000201003B
:100070000003040700000000000000000000000072
:10008000250028002B0000000000240027002A0083
:10009000040404040404040402020202020203032E
:1000A0000303030301020408102040800102040836
:1000B0001020010204081020610411241FBECFEF9C
:1000C000D8E0DEBFCDBF11E0A0E0B1E0E0E7F9E0AD
:1000D00002C005900D92AC32B107D9F721E0ACE235
:1000E000B1E001C01D92A43DB207E1F710E0CDE5FB
:1000F000D0E004C02197FE010E94B004CC35D107A6
:10010000C9F70E94D5020C94B6040C940000AF927B
:10011000BF92CF92DF92EF92FF920F931F93CF93F4
:10012000DF936C017B018B01040F151FEB015E0156
:10013000AE18BF08C017D10759F06991D601ED91EB
:10014000FC910190F081E02DC6010995892B79F78A
:10015000C501DF91CF911F910F91FF90EF90DF903C
:10016000CF90BF90AF900895FC01538D448D252F03
:1001700030E0842F90E0821B930B541710F0CF9641
:10018000089501970895FC01918D828D981761F073
:10019000A28DAE0FBF2FB11D5D968C91928D9F5F8A
:1001A0009F73928F90E008958FEF9FEF0895FC0169
:1001B000918D828D981731F0828DE80FF11D858D1C
:1001C00090E008958FEF9FEF0895FC01918D228DAF
:1001D000892F90E0805C9F4F821B91098F73992734
:1001E000089587E391E00E94E50021E0892B09F45E
:1001F00020E0822F089580E090E0892B29F00E9472
:10020000F10081110C9400000895FC01A48DA80F49
:10021000B92FB11DA35ABF4F2C91848D90E0019648
:100220008F739927848FA689B7892C93A089B18968
:100230008C91837080648C93938D848D981306C009
:100240000288F389E02D80818F7D80830895EF926D
:10025000FF920F931F93CF93DF93EC0181E0888F80
:100260009B8D8C8D98131AC0E889F989808185FF50
:1002700015C09FB7F894EE89FF896083E889F989F2
:1002800080818370806480839FBF81E090E0DF91F4
:10029000CF911F910F91FF90EF900895F62E0B8D47
:1002A00010E00F5F1F4F0F731127E02E8C8D8E1102
:1002B0000CC00FB607FCFACFE889F989808185FF69
:1002C000F5CFCE010E940501F1CFEB8DEC0FFD2F94
:1002D000F11DE35AFF4FF0829FB7F8940B8FEA8924
:1002E000FB8980818062CFCFCF93DF93EC01888D33
:1002F0008823B9F0AA89BB89E889F9898C9185FDA1
:1003000003C0808186FD0DC00FB607FCF7CF8C912E
:1003100085FFF2CF808185FFEDCFCE010E940501E0
:10032000E9CFDF91CF91089590E0FC01E859FF4FAC
:100330002491FC01EC55FF4F3491FC01E057FF4F35
:10034000E491EE23C9F0222339F0233001F1A8F41F
:10035000213019F1223029F1F0E0EE0FFF1FE458AF
:10036000FF4FA591B4918FB7F894EC91611126C01D
:1003700030953E233C938FBF08952730A9F0283055
:10038000C9F0243049F7809180008F7D03C08091AF
:1003900080008F7780938000DFCF84B58F7784BD16
:1003A000DBCF84B58F7DFBCF8091B0008F778093BA
:1003B000B000D2CF8091B0008F7DF9CF3E2BDACF45
:1003C0003FB7F8948091310190913201A0913301AF
:1003D000B091340126B5A89B05C02F3F19F00196B6
:1003E000A11DB11D3FBFBA2FA92F982F8827BC018F
:1003F000CD01620F711D811D911D42E0660F771FB7
:10040000881F991F4A95D1F70895EF92FF920F9395
:100410001F93CF93DF937C0102E111E0D0E0C0E0B5
:10042000F80180810E5F1F4F61E0CE15DF050CF0F3
:1004300060E00E9494012196C830D10589F7DF91D0
:10044000CF911F910F91FF90EF900895FC010190C3
:100450000020E9F73197AF01481B590BBC0187E336
:1004600091E00C9487001F920F920FB60F92112407
:100470002F933F934F935F936F937F938F939F93AC
:10048000AF93BF93EF93FF9387E391E00E94050141
:10049000FF91EF91BF91AF919F918F917F916F915C
:1004A0005F914F913F912F910F900FBE0F901F9032
:1004B00018951F920F920FB60F9211242F938F93BE
:1004C0009F93EF93FF93E0914701F0914801808162
:1004D000E0914D01F0914E0182FD1BC09081809111
:1004E00050018F5F8F7320915101821741F0E0918D
:1004F0005001F0E0E95CFE4F958F80935001FF9131
:10050000EF919F918F912F910F900FBE0F901F90A1
:1005100018958081F4CF1F920F920FB60F9211247D
:100520002F933F938F939F93AF93BF9380912D0110
:1005300090912E01A0912F01B091300130912C01AA
:1005400023E0230F2D3758F50196A11DB11D2093EF
:100550002C0180932D0190932E01A0932F01B09335
:1005600030018091310190913201A0913301B0911D
:1005700034010196A11DB11D809331019093320188
:10058000A0933301B0933401BF91AF919F918F91AC
:100590003F912F910F900FBE0F901F90189526E856
:1005A000230F0296A11DB11DD2CFCF93DF93CDB7FC
:1005B000DEB7A1970FB6F894DEBF0FBECDBF78941B
:1005C00084B5826084BD84B5816084BD85B5826058
:1005D00085BD85B5816085BD80916E008160809309
:1005E0006E00109281008091810082608093810072
:1005F0008091810081608093810080918000816082
:10060000809380008091B10084608093B1008091DC
:10061000B00081608093B00080917A008460809304
:100620007A0080917A00826080937A0080917A00CB
:10063000816080937A0080917A00806880937A004C
:100640001092C100E2EBF0E02491EEE9F0E0849139
:100650008823C9F090E0880F991FFC01EA57FF4FEB
:1006600045915491FC01E458FF4FA591B4919FB777
:10067000F894FA0180812095822380838C91E22F67
:10068000E823EC939FBFA2E1B1E022E231E08D913B
:100690009D919927FC01EC55FF4F649180579F4F26
:1006A000FC0184918823A1F090E0880F991FFC0140
:1006B000EA57FF4F45915491FC01E458FF4F859153
:1006C00094918FB7F894FA019081962B90838FBF05
:1006D0002A173B07E1F6E0914701F091480182E0DB
:1006E0008083E0914301F09144011082E091450143
:1006F000F09146018FEC808310924F01E0914B0105
:10070000F0914C0186E08083E0914901F0914A012B
:10071000808180618083E0914901F0914A0180816C
:1007200088608083E0914901F0914A01808180686E
:100730008083E0914901F0914A0180818F7D80831F
:1007400090E4392E2AE0822E912CA12CB12C00E0CD
:1007500010E030927C0080917A00806480937A006F
:1007600080917A0086FDFCCF90917800809179008D
:1007700089279827892790933601809335019C011A
:10078000295C31092C32314008F06CC082E090E0E5
:100790000E9405020E94E0012B013C0184EFC82E5B
:1007A000DD24D394E12CF12C0E94E0016419750939
:1007B00086099709683E734081059105A8F3F1E029
:1007C000CF1AD108E108F10828EE420E23E0521EAC
:1007D000611C711CC114D104E104F10429F782E207
:1007E00091E00E942602C0903501D09036010D2C78
:1007F000000CEE08FF08F7FE4EC06DE287E391E0C3
:100800000E94270122273327A9012C193D094E09EF
:100810005F0919A2CE0181967C01CA01B901A50127
:1008200094010E948E04605DF70162937F0121159F
:1008300031054105510589F7E114F10419F0C701AB
:100840000E94260288E291E00E942602011511050D
:1008500009F47FCF0E94F100882309F47ACF0E9427
:10086000000077CF9C01255F3140283C310518F40A
:1008700084E090E08DCF9C012D5B32402C323140E2
:1008800018F486E090E084CF893E93400CF482CF48
:1008900088E090E07DCFA701960119A2CE01819654
:1008A0007C01CA01B901A50194010E948E04605D1A
:1008B000F70162937F01211531054105510589F743
:1008C000BBCFE7E3F1E01382128288EE93E0A0E071
:1008D000B0E084839583A683B78384E091E091831D
:1008E000808385EC90E09587848784EC90E09787FF
:1008F000868780EC90E0918B808B81EC90E0938BED
:10090000828B82EC90E0958B848B86EC90E0978BC9
:10091000868B118E128E138E148E0895A1E21A2EDC
:10092000AA1BBB1BFD010DC0AA1FBB1FEE1FFF1F93
:10093000A217B307E407F50720F0A21BB30BE40BE3
:10094000F50B661F771F881F991F1A9469F760952A
:100950007095809590959B01AC01BD01CF010895E4
:10096000EE0FFF1F0590F491E02D0994F894FFCF4E
:100970000000000027018700B4007401E500C300F7
:10098000D70002000300040005000600070008006D
:0C09900009004C4452203A000D0A0000FF
:00000001FF
