:100000000C945D000C9485000C9485000C94850084
:100010000C9485000C9485000C9485000C9485004C
:100020000C9485000C9485000C9485000C9485003C
:100030000C9485000C9485000C9485000C9485002C
:100040000C942F030C9485000C9485000C9485006F
:100050000C9485000C9485000C9485000C9485000C
:100060000C9485000C9485000000000024002700FB
:100070002A0000000000250028002B0004040404CE
:100080000404040402020202020203030303030342
:10009000010204081020408001020408102001021F
:1000A00004081020000000080002010000030407FB
:1000B0000000000000000000B30411241FBECFEFB9
:1000C000D8E0DEBFCDBF11E0A0E0B1E0E0E6FAE0AD
:1000D00002C005900D92A233B107D9F721E0A2E347
:1000E000B1E001C01D92A535B207E1F710E0CDE502
:1000F000D0E004C02197FE010E942805CC35D1072D
:10010000C9F70E9479030C942E050C940000AF925D
:10011000BF92CF92DF92EF92FF920F931F93CF93F4
:10012000DF936C017B018B01040F151FEB015E0156
:10013000AE18BF08C017D10759F06991D601ED91EB
:10014000FC910190F081E02DC6010995892B79F78A
:10015000C501DF91CF911F910F91FF90EF90DF903C
:10016000CF90BF90AF90089590E0FC01EC55FF4F09
:100170002491FC01E057FF4F3491FC01E458FF4FFC
:10018000E491EE23C9F0222339F0233001F1A8F4E1
:10019000213019F1223029F1F0E0EE0FFF1FEE5867
:1001A000FF4FA591B4918FB7F894EC91611126C0DF
:1001B00030953E233C938FBF08952730A9F0283017
:1001C000C9F0243049F7809180008F7D03C0809171
:1001D00080008F7780938000DFCF84B58F7784BDD8
:1001E000DBCF84B58F7DFBCF8091B0008F7780937C
:1001F000B000D2CF8091B0008F7DF9CF3E2BDACF07
:10020000CF93DF9390E0FC01E057FF4F2491845897
:100210009F4FFC0184918823D1F090E0880F991FB3
:10022000FC01E859FF4FA591B491FC01EE58FF4F36
:10023000C591D49161110EC09FB7F8948C91E22FB3
:10024000E0958E238C932881E223E8839FBFDF9182
:10025000CF9108958FB7F894EC91E22BEC938FBF78
:10026000F6CF3FB7F8948091370190913801A09173
:100270003901B0913A0126B5A89B05C02F3F19F06E
:100280000196A11DB11D3FBFBA2FA92F982F882716
:10029000BC01CD01620F711D811D911D42E0660FF1
:1002A000771F881F991F4A95D1F708958F929F92C3
:1002B000AF92BF92CF92DF92EF92FF924B015C011F
:1002C0000E9431016B017C010E9431016C197D0992
:1002D0008E099F09683E734081059105A8F321E0CE
:1002E000821A9108A108B10888EEC80E83E0D81ED2
:1002F000E11CF11C81149104A104B10429F7FF90C1
:10030000EF90DF90CF90BF90AF909F908F90089527
:10031000089590E080E008958F929F92AF92BF92EF
:100320000F931F93CF93DF93CDB7DEB7A1970FB68F
:10033000F894DEBF0FBECDBF19A2423008F44AE0E8
:100340008E010F5D1F4F842E912CB12CA12CA50185
:1003500094010E94F004E62FB901CA01EA3044F585
:10036000E05DD801EE938D01232B242B252B79F70B
:1003700090E080E0109769F0FD0101900020E9F71E
:100380003197AF014A1B5B0BBD018DE391E00E94E9
:100390008700A1960FB6F894DEBF0FBECDBFDF91E8
:1003A000CF911F910F91BF90AF909F908F90089524
:1003B000E95CD7CFFC0101900020E9F73197AF014C
:1003C000481B590BBC018DE391E00C948700CF933F
:1003D000DF93EC0160E08E810E94B40061E08E81C9
:1003E0000E94B40060E08E810E94B4008BE891E02E
:1003F0000197F1F7DF91CF910895CF92DF92EF92BD
:10040000FF920F931F93CF93DF936C017C0187E0E2
:10041000E80EF11CD0E0C0E0062F10E0B8010C2E71
:1004200002C0759567950A94E2F76170F7018191B2
:100430007F010E94B4002196C430D10579F7C6012E
:10044000DF91CF911F910F91FF90EF90DF90CF90B0
:100450000C94E701CF92DF92EF92FF920F931F93DC
:10046000CF93DF93EC01F62E642F8C810E94B400B1
:100470008D818F3F19F060E00E94B4000F2D10E0D5
:100480008F8584FF25C06E0187E0C80ED11CF12C3A
:10049000E12CB8010E2C02C0759567950A94E2F71D
:1004A0006170F60181916F010E94B400FFEFEF1AB5
:1004B000FF0A88E0E816F10461F7CE01DF91CF91E1
:1004C0001F910F91FF90EF90DF90CF900C94E70178
:1004D000B80184E0759567958A95E1F7CE010E9491
:1004E000FD016F2DCE01DF91CF911F910F91FF90F4
:1004F000EF90DF90CF900C94FD0140E0682F8DE3EA
:1005000091E00C942A02CF93DF93823029F49091EA
:100510004C01986090934C018093500110925101CE
:1005200080E48093520180E18093530180E58093C1
:10053000540161E0809141010E94000180914201DB
:100540008F3F19F061E00E94000161E0809143015A
:100550000E940001CDE3D1E09E012D5331408091F6
:100560004C0184FD0BC084E090E0219628173907E8
:1005700044F461E08E810E940001EECF88E090E0BB
:10058000F4CF8BE39DE00197F1F760E080914101AA
:100590000E94B40060E0809143010E94B400809109
:1005A00042018F3F19F060E00E94B40080914C013D
:1005B00084FD39C063E08DE391E00E94FD01CBE44E
:1005C000D6E4CE010197F1F763E08DE391E00E945C
:1005D000FD012197F1F763E08DE391E00E94FD01B9
:1005E00083E592E00197F1F762E08DE391E00E94EC
:1005F000FD0180914C0180620E947D0284E0809325
:100600004D018CE00E947D0281E00E947D028BE31F
:100610009FE10197F1F782E080934E0186E0DF9140
:10062000CF910C947D0280620E947D028BE496E45F
:100630000197F1F780914C0180620E947D0283E571
:1006400092E00197F1F780914C0180620E947D0257
:10065000D0CF41E00E942A0281E090E008951F92ED
:100660000F920FB60F9211242F933F938F939F9366
:10067000AF93BF938091330190913401A0913501E4
:10068000B09136013091320123E0230F2D3758F518
:100690000196A11DB11D20933201809333019093E7
:1006A0003401A0933501B0933601809137019091C8
:1006B0003801A0913901B0913A010196A11DB11DF7
:1006C0008093370190933801A0933901B0933A0198
:1006D000BF91AF919F918F913F912F910F900FBE3E
:1006E0000F901F90189526E8230F0296A11DB11DAB
:1006F000D2CF789484B5826084BD84B5816084BD96
:1007000085B5826085BD85B5816085BD80916E00AF
:10071000816080936E0010928100809181008260E0
:10072000809381008091810081608093810080911D
:1007300080008160809380008091B100846080930C
:10074000B1008091B00081608093B00080917A0008
:10075000846080937A0080917A00826080937A002E
:1007600080917A00816080937A0080917A0080681D
:1007700080937A001092C10060E08EE00E94000138
:1007800061E085E00E94000182E00E94830280E433
:10079000782E88248A9493E0992EA12CB12C29EAF2
:1007A000C22E20E0D22E0BE31FE130E0E32E30E03A
:1007B000F32EE1E0809150018111E0E0E195F0E05D
:1007C000E35CFE4F848980680E947D0270927C0009
:1007D00080917A00806480937A0080917A0086FD0F
:1007E000FCCF80917800A0917900BA2FA82F2FEF2D
:1007F00030E00E942105A50194010E94D1043093AC
:100800003C0120933B018CE091E00E94DA012090B2
:100810003B0130903C01032C000C440855084AE091
:10082000C201B10157FE0EC041E06DE28DE391E0DF
:100830000E942A0266277727CB016219730984096F
:1008400095094AE00E948C01E0915001E230D0F518
:10085000E150F0E0E35CFE4F848980680E947D02F5
:1008600080913B0190913C01893C91056CF185E1BF
:1008700091E00E94DA01C0913B01D0913C0161E01E
:1008800085E00E940001209741F560E085E00E942C
:10089000B40068EE73E080E090E00E94560181E0D1
:1008A0000E947D02C8010197F1F764EF71E080E0DA
:1008B00090E00E945601E114F10409F47ACF0E94FD
:1008C000000077CFE1E0C5CF843691051CF480E2CB
:1008D00091E0CFCF8AE291E0CCCFCF3FD10511F4A8
:1008E00061E0D4CFF6018491833019F140F4813076
:1008F000B1F08230C9F0C038D10594F7C6CF873047
:1009000011F1883041F18430B1F78091800080622C
:1009100080938000D0938B00C0938A00BACF84B5B7
:10092000806884BDC7BDB5CF84B5806284BDC8BDB5
:10093000B0CF80918000806880938000D093890040
:10094000C0938800A6CF8091B00080688093B000EB
:10095000C093B3009ECF8091B00080628093B000BE
:10096000C093B40096CFEDE3F1E01382128284E0ED
:1009700091E09183808387E084838FEF858386E095
:10098000868389E087838AE080878BE081878CE09B
:1009900082871386148615861686178681E00C9446
:1009A0008302052E97FB1EF400940E94E80457FD75
:1009B00007D00E94F00407FC03D04EF40C94E80426
:1009C00050954095309521953F4F4F4F5F4F08957B
:1009D00090958095709561957F4F8F4F9F4F0895AB
:1009E000A1E21A2EAA1BBB1BFD010DC0AA1FBB1F33
:1009F000EE1FFF1FA217B307E407F50720F0A21BA5
:100A0000B30BE40BF50B661F771F881F991F1A9411
:100A100069F760957095809590959B01AC01BD013B
:100A2000CF010895A29FB001B39FC001A39F700D95
:100A3000811D1124911DB29F700D811D1124911DE6
:100A400008950E941205B7FF0895821B930B089525
:100A5000EE0FFF1F0590F491E02D0994F894FFCF5D
:100A60000000000029038700890188014C6967683C
:100A700074203A2000746572616E672074616500AD
:100A800067656C617020746165004E6F726D616C9A
:020A9000000064
:00000001FF
