:100000000C9462000C948A000C948A000C948A0070
:100010000C948A000C948A000C948A000C948A0038
:100020000C948A000C948A000C948A000C948A0028
:100030000C948A000C948A000C948A000C948A0018
:100040000C94BF050C948A000C948A000C948A00CE
:100050000C948A000C948A000C948A000C948A00F8
:100060000C948A000C948A000000000024002700F1
:100070002A0000000000250028002B0000000000DE
:1000800023002600290004040404040404040202DA
:100090000202020203030303030301020408102007
:1000A0004080010204081020010204081020000012
:1000B0000008000201000003040700000000000027
:1000C00000006F0711241FBECFEFD8E0DEBFCDBF09
:1000D00011E0A0E0B1E0E2E0F0E102C005900D9295
:1000E000A238B107D9F721E0A2E8B1E001C01D9222
:1000F000A03DB207E1F710E0C2E6D0E004C02197CE
:10010000FE010E94F907C136D107C9F70E9409060E
:100110000C94FF070C9400008230910538F0880F92
:10012000991F880F991F05970197F1F708952F924E
:100130003F924F925F926F927F928F929F92AF9277
:10014000BF92CF92DF92EF92FF920F931F93CF93C4
:10015000DF93CDB7DEB72A970FB6F894DEBF0FBE98
:10016000CDBF6C01990FEE08FF086090A401062D29
:1001700010E0C801880F991F880F991FFC01E35CEC
:10018000FE4F40815181628173819E012F5F3F4FFD
:100190004901C416D506E606F706C4F0F40185E267
:1001A0009E2F9819961508F462C087EA91E0D40151
:1001B0002A2F2819261508F074C0ED91F0E0EC5EA6
:1001C000FE4F2081FC012193CF01F2CF875C9E4F2F
:1001D000FC01408151816281738181E090E0A0E067
:1001E000B0E0841B950BA60BB70BC816D906EA0620
:1001F000FB06A4F2712CF7FE0CC085E28983F09413
:10020000E094D094C094C11CD11CE11CF11C772453
:100210007394A72CB12C9801215031093A87298772
:100220000A191B09000F111F000F111F035C1E4F3D
:10023000A80CB91C7614E8F4F80152904290329060
:1002400022908F01C701B601A20191010E949E0771
:10025000F50121935F01A22FB0E0A20191010E945C
:10026000BD07C61AD70AE80AF90A7394E3CF819347
:1002700097CF80919301811198CF24E2E82FF0E08D
:1002800049855A85E417F5070CF08FCFE80DF91D65
:100290009081911103C020838F5FF0CF9A30E0F7F7
:1002A00084CF2A960FB6F894DEBF0FBECDBFDF9184
:1002B000CF911F910F91FF90EF90DF90CF90BF9063
:1002C000AF909F908F907F906F905F904F903F90F6
:1002D0002F900895AF92BF92CF92DF92EF92FF924C
:1002E0000F931F93CF93DF936C017B018B01040F5E
:1002F000151FEB015E01AE18BF08C017D10759F0FA
:100300006991D601ED91FC910190F081E02DC6013B
:100310000995892B79F7C501DF91CF911F910F9135
:10032000FF90EF90DF90CF90BF90AF900895833013
:1003300081F028F4813099F08230A9F00895873057
:10034000A9F08830C9F08430B1F4809180008F7DAD
:1003500003C0809180008F7780938000089584B5DA
:100360008F7784BD089584B58F7DFBCF8091B000D9
:100370008F778093B00008958091B0008F7DF9CF82
:10038000CF93DF93282F30E0F901E255FF4F84919E
:10039000F901E656FF4FD491F901EA57FF4FC49196
:1003A000CC23A1F081110E949701EC2FF0E0EE0F19
:1003B000FF1FE458FF4FA591B491EC91ED2381E02C
:1003C00090E009F480E0DF91CF91089580E090E023
:1003D000FACF1F93CF93DF93282F30E0F901E25536
:1003E000FF4F8491F901E656FF4FD491F901EA5786
:1003F000FF4FC491CC23A9F0162F81110E949701C1
:10040000EC2FF0E0EE0FFF1FEE58FF4FA591B491D7
:100410008FB7F894EC91111108C0D095DE23DC93CE
:100420008FBFDF91CF911F910895DE2BF8CFCF932F
:10043000DF93C82FD0E08091A501D81758F4ED2F95
:10044000F0E0E357FE4F6091900187850E94E9013B
:10045000DF5FF1CFEC2FF0E0E357FE4F60918E01AC
:100460008781DF91CF910C94E901CF93DF93C82F5F
:10047000D0E08091A401D81758F4ED2FF0E0E357B5
:10048000FE4F60918E0187810E94E901DF5FF1CF0D
:10049000EC2FF0E0E357FE4F609190018785DF91EC
:1004A000CF910C94E9011F93CF93DF93C82FD0E035
:1004B000C357DE4F60918D018F810E94E90110E0EA
:1004C0006A968091A5011817A8F4E12FF0E08881C1
:1004D00090E0012E02C0959587950A94E2F780FF7F
:1004E00007C0E357FE4F60918F0187850E94E901A5
:1004F0001F5FE7CFDF91CF911F9108950F931F9357
:10050000CF93C82FE82FF0E0E357FE4F60918F01A3
:1005100087850E94E90101E010E002C0000F111F71
:10052000CA95E2F7C0E08091A401C81788F4EC2FC7
:10053000F0E0E357FE4F828D90E080239123892BDA
:1005400029F060918D0187810E94E901CF5FEBCF97
:10055000CF911F910F910895CF93DF9390E0FC010D
:10056000E656FF4F24918A579F4FFC0184918823C0
:10057000D1F090E0880F991FFC01E859FF4FA59139
:10058000B491FC01EE58FF4FC591D49161110EC09A
:100590009FB7F8948C91E22FE0958E238C9328815D
:1005A000E223E8839FBFDF91CF9108958FB7F8943E
:1005B000EC91E22BEC938FBFF6CF3FB7F89480918C
:1005C000870190918801A0918901B0918A0126B597
:1005D000A89B05C02F3F19F00196A11DB11D3FBF7B
:1005E000BA2FA92F982F8827BC01CD01620F711D4A
:1005F000811D911D42E0660F771F881F991F4A9544
:10060000D1F70895CF92DF92EF92FF920F931F934D
:10061000CF9380919201811183C00E94DD024091AD
:10062000B7010091AF011091B0012091B10130915B
:10063000B2016B017C01C01AD10AE20AF30A0091EF
:10064000B5011091B601411104C00091B3011091A0
:10065000B401012E000C220B330BC016D106E206AA
:10066000F30698F16093AF017093B0018093B101EC
:100670009093B2018091A6012091910121112DC08A
:100680004423C1F01092B7018091A6018F5F80933F
:10069000A6019091A501891710F01092A6018091F2
:1006A000A601CF911F910F91FF90EF90DF90CF9017
:1006B0000C947E020E9435028091B5019091B601A2
:1006C000892B11F381E08093B701CF911F910F9196
:1006D000FF90EF90DF90CF9008954423C1F01092E7
:1006E000B7018091A6018F5F8093A6019091A4012C
:1006F000891710F01092A6018091A601CF911F9149
:100700000F91FF90EF90DF90CF900C9453020E94D6
:1007100017028091B5019091B601892B11F3D2CFC8
:1007200080919101C0E081111AC08091A501C81784
:1007300060F68C2F0E947E028091B3019091B401EB
:100740000E948C008C2F0E9435028091B5019091FF
:10075000B601009711F00E948C00CF5FE6CF809128
:10076000A401C81708F0B1CF8C2F0E9453028091CA
:10077000B3019091B4010E948C008C2F0E9417024B
:100780008091B5019091B601009711F00E948C0004
:10079000CF5FE5CF8F929F92AF92BF92CF92DF92C1
:1007A000EF92FF924B015C010E94DD026B017C0124
:1007B0000E94DD026C197D098E099F09683E734015
:1007C00081059105A8F321E0821A9108A108B108DA
:1007D00088EEC80E83E0D81EE11CF11C8114910440
:1007E000A104B10429F7FF90EF90DF90CF90BF9064
:1007F000AF909F908F900895089590E080E00895C5
:100800008F929F92AF92BF920F931F93CF93DF93DC
:10081000CDB7DEB7A1970FB6F894DEBF0FBECDBF40
:1008200019A2423008F44AE08E010F5D1F4F842E5A
:10083000912CB12CA12CA50194010E94C807E62F90
:10084000B901CA01EA3044F5E05DD801EE938D01AB
:10085000232B242B252B79F790E080E0109769F06B
:10086000FD0101900020E9F73197AF014A1B5B0BB6
:10087000BD0188EB91E00E946A01A1960FB6F89441
:10088000DEBF0FBECDBFDF91CF911F910F91BF9003
:10089000AF909F908F900895E95CD7CFCF93DF936F
:1008A000EC0160E08E810E94E90161E08E810E948E
:1008B000E90160E08E810E94E9018BE891E00197F7
:1008C000F1F7DF91CF910895CF92DF92EF92FF92EF
:1008D0000F931F93CF93DF936C017C0187E0E80EA9
:1008E000F11CD0E0C0E0062F10E0B8010C2E02C0D1
:1008F000759567950A94E2F76170F70181917F0120
:100900000E94E9012196C430D10579F7C601DF9133
:10091000CF911F910F91FF90EF90DF90CF900C94AB
:100920004E04CF92DF92EF92FF920F931F93CF93DB
:10093000DF93EC01F62E642F8C810E94E9018D81FA
:100940008F3F19F060E00E94E9010F2D10E08F85C4
:1009500084FF25C06E0187E0C80ED11CF12CE12C6C
:10096000B8010E2C02C0759567950A94E2F7617084
:10097000F60181916F010E94E901FFEFEF1AFF0A72
:1009800088E0E816F10461F7CE01DF91CF911F9165
:100990000F91FF90EF90DF90CF900C944E04B80130
:1009A00084E0759567958A95E1F7CE010E9464040D
:1009B0006F2DCE01DF91CF911F910F91FF90EF909E
:1009C000DF90CF900C94640440E0682F88EB91E0B6
:1009D0000C949104CF93DF93823029F49091C70156
:1009E00098609093C7018093CB011092CC0180E472
:1009F0008093CD0180E18093CE0180E58093CF018B
:100A000061E08091BC010E94AC028091BD018F3FEA
:100A100019F061E00E94AC0261E08091BE010E9489
:100A2000AC02C8EBD1E09E01285B31408091C70148
:100A300084FD0BC084E090E021962817390744F428
:100A400061E08E810E94AC02EECF88E090E0F4CFAE
:100A50008BE39DE00197F1F760E08091BC010E947B
:100A6000E90160E08091BE010E94E9018091BD0131
:100A70008F3F19F060E00E94E9018091C70184FD79
:100A800039C063E088EB91E00E946404CBE4D6E4D3
:100A9000CE010197F1F763E088EB91E00E946404D6
:100AA0002197F1F763E088EB91E00E94640483E50D
:100AB00092E00197F1F762E088EB91E00E94640414
:100AC0008091C70180620E94E40484E08093C801A1
:100AD0008CE00E94E40481E00E94E4048BE39FE147
:100AE0000197F1F782E08093C90186E0DF91CF9111
:100AF0000C94E40480620E94E4048BE496E4019781
:100B0000F1F78091C70180620E94E40483E592E0DE
:100B10000197F1F78091C70180620E94E404D0CF71
:100B200041E00E94910481E090E00895CF92DF922D
:100B3000EF92FF926C01990FEE08FF08F7FE16C0C6
:100B400041E06DE288EB91E00E94910466277727EF
:100B5000CB016C197D098E099F094AE00E940004AF
:100B60000196FF90EF90DF90CF9008954AE0C70183
:100B7000B601FF90EF90DF90CF900C9400041F928D
:100B80000F920FB60F9211242F933F938F939F9341
:100B9000AF93BF938091830190918401A0918501CF
:100BA000B09186013091820123E0230F2D3758F553
:100BB0000196A11DB11D2093820180938301909322
:100BC0008401A0938501B093860180918701909163
:100BD0008801A0918901B0918A010196A11DB11DE2
:100BE0008093870190938801A0938901B0938A0133
:100BF000BF91AF919F918F913F912F910F900FBE19
:100C00000F901F90189526E8230F0296A11DB11D85
:100C1000D2CFCF93DF93CDB7DEB729970FB6F89435
:100C2000DEBF0FBECDBF789484B5826084BD84B52D
:100C3000816084BD85B5826085BD85B5816085BDD7
:100C400080916E00816080936E001092810080918F
:100C50008100826080938100809181008160809317
:100C60008100809180008160809380008091B1003C
:100C700084608093B1008091B00081608093B00067
:100C800080917A00846080937A0080917A008260FB
:100C900080937A0080917A00816080937A008091BD
:100CA0007A00806880937A001092C10088E0E0E0CA
:100CB000F1E0DE01119601900D928A95E1F781E055
:100CC0008093910110929201109293018093A4015C
:100CD00098E09093A50180938D0110928F0110925E
:100CE0008E0180939001FE013196ACE9B1E0CE0116
:100CF000099621912D938E179F07D9F789858093A7
:100D0000940110E08091A401181798F4812F90E0CD
:100D10009C0123573E4F790161E0F90187810E94D0
:100D2000AC0260918E01F70187810E94E9011F5F8B
:100D3000E9CF10E08091A501181750F09091A4011F
:100D4000E7EAF1E080E09817B1F011928F5FFBCFF6
:100D5000812F90E09C0123573E4F790161E0F9011A
:100D600087850E94AC0260919001F70187850E94FF
:100D7000E9011F5FDFCF80E00E94350280E00E9422
:100D8000170280E496E09093B4018093B30110922F
:100D9000B6011092B5011092B70160E083E00E94A5
:100DA000AC0260E084E00E94AC0282E00E94EA04AF
:100DB0008BE3C82E8FE1D82E90E0A92E90E0B92EBB
:100DC00029E0E22EF12CE1E08091CB018111E0E0FD
:100DD000E195F0E0E854FE4F848980680E94E404C5
:100DE00083E00E94C00100918B0110918C01892B3E
:100DF000A1F184E00E94C001892B79F10150110911
:100E000017FD3EC010938C0100938B014EE050E023
:100E100065E671E088EB91E00E946A0180918B01A8
:100E200090918C010E94960568EE73E080E090E05E
:100E30000E94CA0381E00E94E404C6010197F1F711
:100E400064EF71E080E090E00E94CA03A114B10455
:100E500009F4B9CF0E940000B6CF83E00E94C00120
:100E6000892B99F484E00E94C001892B71F1015013
:100E7000110917FD1DC010938C0100938B011CC03C
:100E8000F0928C01E0928B01C1CF0F5F1F4F0A30AF
:100E900011054CF410938C0100938B014DE050E050
:100EA00064E771E0B7CF10928C0110928B01F6CFFE
:100EB000F0928C01E0928B0180918B0190918C01DA
:100EC0000E9497000E940203AFCF0F5F1F4F0A30AE
:100ED00011058CF210928C0110928B01EDCFEDE890
:100EE000F1E080ED97E097A386A311A610A612A6C5
:100EF000178A118E12A213A214A215A214821582AF
:100F0000E8EBF1E0138212828CE091E09183808320
:100F100087E084838FEF858386E0868389E08783FB
:100F20008AE080878BE081878CE082871386148635
:100F300015861686178681E00C94EA04052E97FB29
:100F40001EF400940E94B50757FD07D00E94C80701
:100F500007FC03D04EF40C94B5075095409530959E
:100F600021953F4F4F4F5F4F089590958095709515
:100F700061957F4F8F4F9F4F08950E94EA07A59F6D
:100F8000900DB49F900DA49F800D911D1124089584
:100F9000A1E21A2EAA1BBB1BFD010DC0AA1FBB1F7D
:100FA000EE1FFF1FA217B307E407F50720F0A21BEF
:100FB000B30BE40BF50B661F771F881F991F1A945C
:100FC00069F760957095809590959B01AC01BD0186
:100FD000CF010895A29FB001B39FC001A39F700DE0
:100FE000811D1124911DB29F700D811D1124911D31
:100FF0000895EE0FFF1F0590F491E02D0994F894E9
:02100000FFCF20
:101002000E0F1011121314150000000090056A0152
:10101200FD03FC033F065B4F666D7D077F6F777CA8
:10102200395E79713D76300E763800543F736750E1
:101032006D783E3E00766E5B0040806308010000E2
:10104200000A00000064000000E80300001027000E
:1010520000A086010040420F008096980000E1F552
:101062000500CA9A3B486974756E6720747572757B
:101072006E203A00486974756E67206E61696B2054
:021082003A0032
:00000001FF
