:020000040000FA
:100000000C9462000C948A000C948A000C948A0070
:100010000C948A000C948A000C948A000C948A0038
:100020000C948A000C948A000C948A000C948A0028
:100030000C948A000C948A000C948A000C948A0018
:100040000C942A030C948A000C948A000C948A0065
:100050000C948A000C948A000C948A000C948A00F8
:100060000C948A000C948A000000000024002700F1
:100070002A0000000000250028002B0000000008D6
:10008000000201000003040700000000000000005F
:1000900000000000230026002900040404040404D6
:1000A0000404020202020202030303030303010227
:1000B00004081020408001020408102001020408F6
:1000C0001020400511241FBECFEFD8E0DEBFCDBF0A
:1000D00011E0A0E0B1E0E4EAFEE002C005900D927C
:1000E000A632B107D9F721E0A6E2B1E001C01D9226
:1000F000A734B207E1F710E0C2E6D0E004C02197D0
:10010000FE010E944A07C136D107C9F70E94B90310
:100110000C9450070C940000AF92BF92CF92DF92E4
:10012000EF92FF920F931F93CF93DF936C017B01AC
:100130008B01040F151FEB015E01AE18BF08C0173D
:10014000D10759F06991D601ED91FC910190F081B0
:10015000E02DC6010995892B79F7C501DF91CF9173
:100160001F910F91FF90EF90DF90CF90BF90AF90D5
:10017000089590E0FC01E458FF4F2491FC01E25502
:10018000FF4F3491FC01E656FF4FE491EE23C9F096
:10019000222339F0233001F1A8F4213019F1223063
:1001A00029F1F0E0EE0FFF1FEE58FF4FA591B4913B
:1001B0008FB7F894EC91611126C030953E233C93A3
:1001C0008FBF08952730A9F02830C9F0243049F7AF
:1001D000809180008F7D03C0809180008F77809315
:1001E0008000DFCF84B58F7784BDDBCF84B58F7D72
:1001F000FBCF8091B0008F778093B000D2CF8091F9
:10020000B0008F7DF9CF3E2BDACFCF93DF9390E014
:10021000FC01E255FF4F249186569F4FFC018491CB
:100220008823D1F090E0880F991FFC01E859FF4F17
:10023000A591B491FC01EE58FF4FC591D491611185
:100240000EC09FB7F8948C91E22FE0958E238C938B
:100250002881E223E8839FBFDF91CF9108958FB774
:10026000F894EC91E22BEC938FBFF6CF3FB7F89464
:1002700080912B0190912C01A0912D01B0912E0124
:1002800026B5A89B05C02F3F19F00196A11DB11DF1
:100290003FBFBA2FA92F982F8827BC01CD01620F2D
:1002A000711D811D911D42E0660F771F881F991FE8
:1002B0004A95D1F708958F929F92AF92BF92CF92B5
:1002C000DF92EF92FF924B015C010E9436016B01BD
:1002D0007C010E9436016C197D098E099F09683ED8
:1002E000734081059105A8F321E0821A9108A108C5
:1002F000B10888EEC80E83E0D81EE11CF11C811401
:100300009104A104B10429F7FF90EF90DF90CF9002
:10031000BF90AF909F908F900895089590E080E0F7
:100320000895FC0101900020E9F73197AF01481BC7
:10033000590BBC018FE291E00C948C008F929F923C
:10034000AF92BF920F931F93CF93DF93CDB7DEB7DA
:10035000A1970FB6F894DEBF0FBECDBF19A24230F1
:1003600008F44AE08E010F5D1F4F842E912CB12CB2
:10037000A12CA50194010E942807E62FB901CA010A
:10038000EA30F4F4E05DD801EE938D01232B242BA9
:10039000252B79F790E080E0109719F0CD010E94AD
:1003A0009101A1960FB6F894DEBF0FBECDBFDF91CD
:1003B000CF911F910F91BF90AF909F908F90089514
:1003C000E95CE1CFCF93DF93EC0160E08E810E9486
:1003D000B90061E08E810E94B90060E08E810E94C8
:1003E000B9008BE891E00197F1F7DF91CF91089583
:1003F000CF92DF92EF92FF920F931F93CF93DF93F1
:100400006C017C0187E0E80EF11CD0E0C0E0062F13
:1004100010E0B8010C2E02C0759567950A94E2F7BA
:100420006170F70181917F010E94B9002196C4306B
:10043000D10579F7C601DF91CF911F910F91FF9000
:10044000EF90DF90CF900C94E201CF92DF92EF9289
:10045000FF920F931F93CF93DF93EC01F62E642F3F
:100460008C810E94B9008D818F3F19F060E00E945D
:10047000B9000F2D10E08F8584FF25C06E0187E045
:10048000C80ED11CF12CE12CB8010E2C02C07595C0
:1004900067950A94E2F76170F60181916F010E94FD
:1004A000B900FFEFEF1AFF0A88E0E816F10461F7E0
:1004B000CE01DF91CF911F910F91FF90EF90DF90D0
:1004C000CF900C94E201B80184E0759567958A9508
:1004D000E1F7CE010E94F8016F2DCE01DF91CF919F
:1004E0001F910F91FF90EF90DF90CF900C94F80147
:1004F00040E0682F8FE291E00C942502CF93DF93C8
:10050000823029F490913E01986090933E0180934F
:1005100042011092430180E48093440180E1809382
:10052000450180E58093460161E0809133010E949E
:100530000501809134018F3F19F061E00E940501AF
:1005400061E0809135010E940501CFE2D1E09E017A
:100550002F52314080913E0184FD0BC084E090E039
:1005600021962817390744F461E08E810E94050125
:10057000EECF88E090E0F4CF8BE39DE00197F1F7B8
:1005800060E0809133010E94B90060E08091350104
:100590000E94B900809134018F3F19F060E00E9401
:1005A000B90080913E0184FD39C063E08FE291E0A3
:1005B0000E94F801CBE4D6E4CE010197F1F763E0A5
:1005C0008FE291E00E94F8012197F1F763E08FE25A
:1005D00091E00E94F80183E592E00197F1F762E073
:1005E0008FE291E00E94F80180913E0180620E94BA
:1005F000780284E080933F018CE00E94780281E0E1
:100600000E9478028BE39FE10197F1F782E08093EB
:10061000400186E0DF91CF910C94780280620E94C5
:1006200078028BE496E40197F1F780913E018062B5
:100630000E94780283E592E00197F1F780913E01F4
:1006400080620E947802D0CF41E00E94250281E0C2
:1006500090E008951F920F920FB60F9211242F93DE
:100660003F938F939F93AF93BF9380912701909176
:100670002801A0912901B0912A013091260123E09F
:10068000230F2D3758F50196A11DB11D209326018A
:100690008093270190932801A0932901B0932A0108
:1006A00080912B0190912C01A0912D01B0912E01F0
:1006B0000196A11DB11D80932B0190932C01A09355
:1006C0002D01B0932E01BF91AF919F918F913F91DA
:1006D0002F910F900FBE0F901F90189526E8230FB3
:1006E0000296A11DB11DD2CFCF92DF92EF92FF9261
:1006F0000F931F93E82FF92F05C00150110921090D
:10070000310961F1908196239417B9F305C0015026
:1007100011092109310911F1908196239413F7CF22
:10072000C12CD12CE12CF12C0AC08FEFC81AD80AA9
:10073000E80AF80A0C151D052E053F0579F08081A1
:100740008623841791F36C2D7D2D8E2D9F2D1F9167
:100750000F91FF90EF90DF90CF90089560E070E0F0
:1007600080E090E01F910F91FF90EF90DF90CF908D
:100770000895789484B5826084BD84B5816084BD19
:1007800085B5826085BD85B5816085BD80916E002F
:10079000816080936E001092810080918100826060
:1007A000809381008091810081608093810080919D
:1007B00080008160809380008091B100846080938C
:1007C000B1008091B00081608093B00080917A0088
:1007D000846080937A0080917A00826080937A00AE
:1007E00080917A00816080937A0080917A0080689D
:1007F00080937A001092C10061E083E00E940501BD
:1008000060E084E00E94050161E08DE00E94050146
:1008100082E00E947E02C3E2D0E09EE9292E90E0B1
:10082000392E2BE3A22E2FE1B22E30E0832E30E0C2
:10083000932EE1E0809142018111E0E0E195F0E04A
:10084000E15DFE4F848980680E94780261E083E068
:100850000E94B900CE010197F1F760E083E00E94A9
:10086000B900E2EBF0E06491F1018491E82FF0E04F
:10087000EE0FFF1FE057FF4F8591949100E412E4C3
:100880002FE030E0462F0E94740361157105810549
:10089000910529F06F5F7F4F8F4F9F4F9F70072EFD
:1008A000000C880B990B0E94010629E832ED4EE5F9
:1008B0005BE30E94B60620E030E040E05FE30E9488
:1008C000B6066B017C0120E030E040EF51E40E946D
:1008D000CB0587FF14C061E08DE00E94B90068EE8F
:1008E00073E080E090E00E945B0160E08DE00E9498
:1008F000B90064EF71E080E090E00E945B018CE061
:1009000091E00E949101A7019601C701B6010E94E2
:100910002307882309F185E191E00E94910181E29A
:1009200091E00E94910168EB7BE080E090E00E9402
:100930005B0181E00E947802C5010197F1F764EF45
:1009400071E080E090E00E945B018114910409F461
:1009500070CF0E9400006DCF26013701E89477F830
:100960002FEF3FEF4FE75FE7C301B2010E9423077C
:1009700081110DC02FEF3FEF4FE75FE7C301B201D9
:100980000E94CB0518161CF489E191E0C6CF2FEF29
:100990003FEF4FE75FE4C701B6010E94B1061816AA
:1009A0001CF48DE191E0B9CF2FEF3FEF4FE75FEC03
:1009B000C701B6010E94CB0587FDF3CF20E030E0F0
:1009C000A901C701B6010E94CB0587FF0AC041E01B
:1009D0006DE28FE291E00E942502F7FAF094F7F8B9
:1009E000F0942AE037ED43EA5BE3C701B6010E94C9
:1009F0005F052B013C010E94D0056B017C010E9428
:100A0000FF059B01AC01C301B2010E945E052B01F1
:100A10003C014AE0C701B6010E949E0141E06EE23E
:100A20008FE291E00E94250220E030E040E251E4B4
:100A3000C301B2010E94B6062B013C010E94D00501
:100A40006B01F12CE12C4AE0C701B6010E949E0126
:100A5000C701B6010E94FF059B01AC01C301B201B1
:100A60000E945E0520E030E040E251E40E94B606BC
:100A70000E94D00590E080E04AE00E949E014FCFA6
:100A8000EFE2F1E01382128284E091E091838083AF
:100A900087E084838FEF858386E0868389E0878380
:100AA0008AE080878BE081878CE0828713861486BA
:100AB00015861686178681E00C947E025058BB2757
:100AC000AA270E9476050C9477060E94690638F0E2
:100AD0000E94700620F039F49F3F19F426F40C941C
:100AE00066060EF4E095E7FB0C946006E92F0E9481
:100AF000880658F3BA17620773078407950720F032
:100B000079F4A6F50C94AA060EF4E0950B2EBA2FF4
:100B1000A02D0B01B90190010C01CA01A001112403
:100B2000FF27591B99F0593F50F4503E68F11A16AF
:100B3000F040A22F232F342F4427585FF3CF469540
:100B400037952795A795F0405395C9F77EF41F1662
:100B5000BA0B620B730B840BBAF09150A1F0FF0F2C
:100B6000BB1F661F771F881FC2F70EC0BA0F621F18
:100B7000731F841F48F4879577956795B795F79508
:100B80009E3F08F0B0CF9395880F08F09927EE0F9D
:100B90009795879508950E943C0608F481E0089592
:100BA0000E94900688F09F5798F0B92F9927B75167
:100BB000B0F0E1F0660F771F881F991F1AF0BA9501
:100BC000C9F714C0B13091F00E94AA06B1E00895AF
:100BD0000C94AA06672F782F8827B85F39F0B93FA1
:100BE000CCF3869577956795B395D9F73EF49095B4
:100BF0008095709561957F4F8F4F9F4F0895E89432
:100C000009C097FB3EF490958095709561957F4F54
:100C10008F4F9F4F9923A9F0F92F96E9BB27939502
:100C2000F695879577956795B795F111F8CFFAF412
:100C3000BB0F11F460FF1BC06F5F7F4F8F4F9F4F43
:100C400016C0882311F096E911C0772321F09EE8A1
:100C5000872F762F05C0662371F096E8862F70E007
:100C600060E02AF09A95660F771F881FDAF7880FE1
:100C70009695879597F90895990F0008550FAA0B37
:100C8000E0E8FEEF16161706E807F907C0F012169F
:100C90001306E407F50798F0621B730B840B950BA2
:100CA00039F40A2661F0232B242B252B21F40895F7
:100CB0000A2609F4A140A6958FEF811D811D089594
:100CC00097F99F6780E870E060E008959FEF80ECFF
:100CD000089500240A9416161706180609060895A2
:100CE00000240A9412161306140605060895092E08
:100CF0000394000C11F4882352F0BB0F40F4BF2B77
:100D000011F460FF04C06F5F7F4F8F4F9F4F0895B6
:100D100057FD9058440F551F59F05F3F71F04795AC
:100D2000880F97FB991F61F09F3F79F08795089591
:100D3000121613061406551FF2CF4695F1DF08C0B0
:100D4000161617061806991FF1CF869571056105CD
:100D500008940895E894BB2766277727CB0197F975
:100D600008950E943C0608F48FEF08950E94C9067A
:100D70000C9477060E94690638F00E94700620F0F5
:100D8000952311F00C9460060C94660611240C94C3
:100D9000AB060E94880670F3959FC1F3950F50E053
:100DA000551F629FF001729FBB27F00DB11D639F1D
:100DB000AA27F00DB11DAA1F649F6627B00DA11DC3
:100DC000661F829F2227B00DA11D621F739FB00D69
:100DD000A11D621F839FA00D611D221F749F3327D9
:100DE000A00D611D231F849F600D211D822F762F72
:100DF0006A2F11249F5750409AF0F1F088234AF04F
:100E0000EE0FFF1FBB1F661F771F881F91505040BA
:100E1000A9F79E3F510580F00C9460060C94AB0638
:100E20005F3FE4F3983ED4F3869577956795B79541
:100E3000F795E7959F5FC1F7FE2B880F911D96955B
:100E4000879597F908950E943C06880B990B0895A1
:100E5000A1E21A2EAA1BBB1BFD010DC0AA1FBB1FBE
:100E6000EE1FFF1FA217B307E407F50720F0A21B30
:100E7000B30BE40BF50B661F771F881F991F1A949D
:100E800069F760957095809590959B01AC01BD01C7
:100E9000CF010895EE0FFF1F0590F491E02D099406
:100EA000F894FFCF0000000024038C008E018D0118
:100EB0004A6172616B203A20006E616E00696E6655
:0A0EC000006F76660020636D0000ED
:107E0000112484B714BE81FFF0D085E080938100F7
:107E100082E08093C00088E18093C10086E0809377
:107E2000C20080E18093C4008EE0C9D0259A86E02C
:107E300020E33CEF91E0309385002093840096BBD3
:107E4000B09BFECF1D9AA8958150A9F7CC24DD24C4
:107E500088248394B5E0AB2EA1E19A2EF3E0BF2EE7
:107E6000A2D0813461F49FD0082FAFD0023811F036
:107E7000013811F484E001C083E08DD089C08234E0
:107E800011F484E103C0853419F485E0A6D080C0E4
:107E9000853579F488D0E82EFF2485D0082F10E0AE
:107EA000102F00270E291F29000F111F8ED06801E7
:107EB0006FC0863521F484E090D080E0DECF843638
:107EC00009F040C070D06FD0082F6DD080E0C81688
:107ED00080E7D80618F4F601B7BEE895C0E0D1E017
:107EE00062D089930C17E1F7F0E0CF16F0E7DF06D8
:107EF00018F0F601B7BEE89568D007B600FCFDCFD4
:107F0000A601A0E0B1E02C9130E011968C91119780
:107F100090E0982F8827822B932B1296FA010C0160
:107F200087BEE89511244E5F5F4FF1E0A038BF0790
:107F300051F7F601A7BEE89507B600FCFDCF97BE46
:107F4000E89526C08437B1F42ED02DD0F82E2BD052
:107F50003CD0F601EF2C8F010F5F1F4F84911BD097
:107F6000EA94F801C1F70894C11CD11CFA94CF0C13
:107F7000D11C0EC0853739F428D08EE10CD085E9AC
:107F80000AD08FE07ACF813511F488E018D01DD067
:107F900080E101D065CF982F8091C00085FFFCCF94
:107FA0009093C60008958091C00087FFFCCF809118
:107FB000C00084FD01C0A8958091C6000895E0E648
:107FC000F0E098E1908380830895EDDF803219F02E
:107FD00088E0F5DFFFCF84E1DECF1F93182FE3DFCA
:107FE0001150E9F7F2DF1F91089580E0E8DFEE27F6
:047FF000FF270994CA
:027FFE00040479
:00000001FF
